{
  "contractName": "Student",
  "abi": [
    {
      "anonymous": false,
      "inputs": [
        {
          "indexed": true,
          "internalType": "uint256",
          "name": "id",
          "type": "uint256"
        },
        {
          "indexed": false,
          "internalType": "string",
          "name": "name",
          "type": "string"
        },
        {
          "indexed": true,
          "internalType": "uint256",
          "name": "age",
          "type": "uint256"
        },
        {
          "indexed": true,
          "internalType": "uint256",
          "name": "grade",
          "type": "uint256"
        }
      ],
      "name": "SetStudentEvent",
      "type": "event"
    },
    {
      "constant": true,
      "inputs": [
        {
          "internalType": "uint256",
          "name": "",
          "type": "uint256"
        }
      ],
      "name": "studentList",
      "outputs": [
        {
          "internalType": "uint256",
          "name": "",
          "type": "uint256"
        }
      ],
      "payable": false,
      "stateMutability": "view",
      "type": "function"
    },
    {
      "constant": false,
      "inputs": [
        {
          "internalType": "uint256",
          "name": "_id",
          "type": "uint256"
        },
        {
          "internalType": "string",
          "name": "_name",
          "type": "string"
        },
        {
          "internalType": "uint256",
          "name": "_age",
          "type": "uint256"
        },
        {
          "internalType": "uint256",
          "name": "_grade",
          "type": "uint256"
        }
      ],
      "name": "setStudent",
      "outputs": [],
      "payable": false,
      "stateMutability": "nonpayable",
      "type": "function"
    },
    {
      "constant": true,
      "inputs": [
        {
          "internalType": "uint256",
          "name": "_id",
          "type": "uint256"
        }
      ],
      "name": "getStudent",
      "outputs": [
        {
          "internalType": "uint256",
          "name": "id",
          "type": "uint256"
        },
        {
          "internalType": "string",
          "name": "name",
          "type": "string"
        },
        {
          "internalType": "uint256",
          "name": "age",
          "type": "uint256"
        },
        {
          "internalType": "uint256",
          "name": "grade",
          "type": "uint256"
        }
      ],
      "payable": false,
      "stateMutability": "view",
      "type": "function"
    },
    {
      "constant": true,
      "inputs": [],
      "name": "getStudentList",
      "outputs": [
        {
          "internalType": "uint256[]",
          "name": "",
          "type": "uint256[]"
        }
      ],
      "payable": false,
      "stateMutability": "view",
      "type": "function"
    },
    {
      "constant": true,
      "inputs": [
        {
          "internalType": "uint256",
          "name": "id",
          "type": "uint256"
        }
      ],
      "name": "validStudent",
      "outputs": [
        {
          "internalType": "bool",
          "name": "",
          "type": "bool"
        }
      ],
      "payable": false,
      "stateMutability": "view",
      "type": "function"
    }
  ],
  "bytecode": "0x608060405234801561001057600080fd5b50610753806100206000396000f3fe608060405234801561001057600080fd5b50600436106100575760003560e01c80631dcc59761461005c578063642f9163146100bb5780637df221e914610177578063cc339d61146101b9578063d1271fee146101ff575b600080fd5b6100646102d8565b6040518080602001828103825283818151815260200191508051906020019060200280838360005b838110156100a757808201518184015260208101905061008c565b505050509050019250505060405180910390f35b6100e7600480360360208110156100d157600080fd5b8101908080359060200190929190505050610330565b6040518085815260200180602001848152602001838152602001828103825285818151815260200191508051906020019080838360005b8381101561013957808201518184015260208101905061011e565b50505050905090810190601f1680156101665780820380516001836020036101000a031916815260200191505b509550505050505060405180910390f35b6101a36004803603602081101561018d57600080fd5b810190808035906020019092919050505061043d565b6040518082815260200191505060405180910390f35b6101e5600480360360208110156101cf57600080fd5b810190808035906020019092919050505061045e565b604051808215151515815260200191505060405180910390f35b6102d66004803603608081101561021557600080fd5b81019080803590602001909291908035906020019064010000000081111561023c57600080fd5b82018360208201111561024e57600080fd5b8035906020019184600183028401116401000000008311171561027057600080fd5b91908080601f016020809104026020016040519081016040528093929190818152602001838380828437600081840152601f19601f82011690508083019250505050505050919291929080359060200190929190803590602001909291905050506104b4565b005b6060600080548060200260200160405190810160405280929190818152602001828054801561032657602002820191906000526020600020905b815481526020019060010190808311610312575b5050505050905090565b6000606060008060016000868152602001908152602001600020600001546001600087815260200190815260200160002060010160016000888152602001908152602001600020600201546001600089815260200190815260200160002060030154828054600181600116156101000203166002900480601f0160208091040260200160405190810160405280929190818152602001828054600181600116156101000203166002900480156104275780601f106103fc57610100808354040283529160200191610427565b820191906000526020600020905b81548152906001019060200180831161040a57829003601f168201915b5050505050925093509350935093509193509193565b6000818154811061044a57fe5b906000526020600020016000915090505481565b600080600090505b6000805490508110156104a957826000828154811061048157fe5b9060005260206000200154141561049c5760009150506104af565b8080600101915050610466565b50600190505b919050565b600115156104c18561045e565b151514610536576040517f08c379a000000000000000000000000000000000000000000000000000000000815260040180806020018281038252600d8152602001807f616c72656164792065786973740000000000000000000000000000000000000081525060200191505060405180910390fd5b6000849080600181540180825580915050906001820390600052602060002001600090919290919091505550604051806080016040528085815260200184815260200183815260200182815250600160008681526020019081526020016000206000820151816000015560208201518160010190805190602001906105bc929190610679565b5060408201518160020155606082015181600301559050508082857fc7932078ac09a2ba1241da29842889f3b6c0a796b2db199d8474231dfe0b3030866040518080602001828103825283818151815260200191508051906020019080838360005b8381101561063957808201518184015260208101905061061e565b50505050905090810190601f1680156106665780820380516001836020036101000a031916815260200191505b509250505060405180910390a450505050565b828054600181600116156101000203166002900490600052602060002090601f016020900481019282601f106106ba57805160ff19168380011785556106e8565b828001600101855582156106e8579182015b828111156106e75782518255916020019190600101906106cc565b5b5090506106f591906106f9565b5090565b61071b91905b808211156107175760008160009055506001016106ff565b5090565b9056fea265627a7a723158209456ae2e4e8a7921c1060ec59e4cd0cb21813b291a74550942e662a5fa2216a864736f6c63430005100032",
  "source": "//SPDX-License-Identifier: MIT\npragma solidity >=0.5.0 <0.7.0;\n\ncontract Student {\n    struct studentInfo {\n        uint256 id;\n        string name;\n        uint256 age;\n        uint256 grade;\n    }\n\n    uint256[] public studentList;\n    mapping(uint256 => studentInfo) stud;\n\n    event SetStudentEvent(\n        uint256 indexed id,\n        string name,\n        uint256 indexed age,\n        uint256 indexed grade\n    );\n\n    function setStudent(\n        uint256 _id,\n        string memory _name,\n        uint256 _age,\n        uint256 _grade\n    ) public {\n        require(validStudent(_id) == true, \"already exist\");\n        studentList.push(_id);\n        stud[_id] = studentInfo(_id, _name, _age, _grade);\n        emit SetStudentEvent(_id, _name, _age, _grade);\n    }\n\n    function getStudent(uint256 _id)\n        public\n        view\n        returns (\n            uint256 id,\n            string memory name,\n            uint256 age,\n            uint256 grade\n        )\n    {\n        return (stud[_id].id, stud[_id].name, stud[_id].age, stud[_id].grade);\n    }\n\n    function getStudentList() public view returns (uint256[] memory) {\n        return studentList;\n    }\n\n    function validStudent(uint256 id) public view returns (bool) {\n        for (uint256 i = 0; i < studentList.length; i++) {\n            if (studentList[i] == id) {\n                return false;\n            }\n        }\n        return true;\n    }\n}\n",
  "sourcePath": "/Users/thkim/workspace/ethereum/DApp_exercise/studentApp/solidity/contracts/Student.sol",
  "compiler": {
    "name": "solc",
    "version": "0.5.16+commit.9c3226ce.Emscripten.clang"
  },
  "schemaVersion": "3.2.3",
  "updatedAt": "2020-07-28T04:39:12.826Z",
  "networkType": "ethereum",
  "devdoc": {
    "methods": {}
  },
  "userdoc": {
    "methods": {}
  }
}